{
  "_format": "hh-sol-artifact-1",
  "contractName": "Delegate",
  "sourceName": "contracts/Delegate.sol",
  "abi": [
    {
      "inputs": [
        {
          "internalType": "address",
          "name": "_swapERC20Contract",
          "type": "address"
        }
      ],
      "stateMutability": "nonpayable",
      "type": "constructor"
    },
    {
      "inputs": [],
      "name": "AddressInvalid",
      "type": "error"
    },
    {
      "inputs": [],
      "name": "AlreadyInitialized",
      "type": "error"
    },
    {
      "inputs": [],
      "name": "ManagerInvalid",
      "type": "error"
    },
    {
      "inputs": [],
      "name": "NewOwnerIsZeroAddress",
      "type": "error"
    },
    {
      "inputs": [],
      "name": "NoHandoverRequest",
      "type": "error"
    },
    {
      "inputs": [],
      "name": "RuleExpiredOrDoesNotExist",
      "type": "error"
    },
    {
      "inputs": [],
      "name": "SenderAmountInvalid",
      "type": "error"
    },
    {
      "inputs": [],
      "name": "SenderInvalid",
      "type": "error"
    },
    {
      "inputs": [],
      "name": "SignerAmountInvalid",
      "type": "error"
    },
    {
      "inputs": [],
      "name": "TransferFromFailed",
      "type": "error"
    },
    {
      "inputs": [],
      "name": "Unauthorized",
      "type": "error"
    },
    {
      "anonymous": false,
      "inputs": [
        {
          "indexed": false,
          "internalType": "address",
          "name": "signatory",
          "type": "address"
        },
        {
          "indexed": false,
          "internalType": "address",
          "name": "signer",
          "type": "address"
        }
      ],
      "name": "Authorize",
      "type": "event"
    },
    {
      "anonymous": false,
      "inputs": [
        {
          "indexed": true,
          "internalType": "address",
          "name": "senderWallet",
          "type": "address"
        },
        {
          "indexed": true,
          "internalType": "address",
          "name": "signerWallet",
          "type": "address"
        },
        {
          "indexed": true,
          "internalType": "uint256",
          "name": "nonce",
          "type": "uint256"
        }
      ],
      "name": "DelegatedSwapFor",
      "type": "event"
    },
    {
      "anonymous": false,
      "inputs": [
        {
          "indexed": true,
          "internalType": "address",
          "name": "pendingOwner",
          "type": "address"
        }
      ],
      "name": "OwnershipHandoverCanceled",
      "type": "event"
    },
    {
      "anonymous": false,
      "inputs": [
        {
          "indexed": true,
          "internalType": "address",
          "name": "pendingOwner",
          "type": "address"
        }
      ],
      "name": "OwnershipHandoverRequested",
      "type": "event"
    },
    {
      "anonymous": false,
      "inputs": [
        {
          "indexed": true,
          "internalType": "address",
          "name": "oldOwner",
          "type": "address"
        },
        {
          "indexed": true,
          "internalType": "address",
          "name": "newOwner",
          "type": "address"
        }
      ],
      "name": "OwnershipTransferred",
      "type": "event"
    },
    {
      "anonymous": false,
      "inputs": [
        {
          "indexed": false,
          "internalType": "address",
          "name": "tmp",
          "type": "address"
        },
        {
          "indexed": false,
          "internalType": "address",
          "name": "signer",
          "type": "address"
        }
      ],
      "name": "Revoke",
      "type": "event"
    },
    {
      "anonymous": false,
      "inputs": [
        {
          "indexed": true,
          "internalType": "address",
          "name": "senderWallet",
          "type": "address"
        },
        {
          "indexed": true,
          "internalType": "address",
          "name": "senderToken",
          "type": "address"
        },
        {
          "indexed": false,
          "internalType": "uint256",
          "name": "senderAmount",
          "type": "uint256"
        },
        {
          "indexed": true,
          "internalType": "address",
          "name": "signerToken",
          "type": "address"
        },
        {
          "indexed": false,
          "internalType": "uint256",
          "name": "signerAmount",
          "type": "uint256"
        },
        {
          "indexed": false,
          "internalType": "uint256",
          "name": "expiry",
          "type": "uint256"
        }
      ],
      "name": "SetRule",
      "type": "event"
    },
    {
      "anonymous": false,
      "inputs": [
        {
          "indexed": true,
          "internalType": "address",
          "name": "senderWallet",
          "type": "address"
        },
        {
          "indexed": true,
          "internalType": "address",
          "name": "senderToken",
          "type": "address"
        },
        {
          "indexed": true,
          "internalType": "address",
          "name": "signerToken",
          "type": "address"
        }
      ],
      "name": "UnsetRule",
      "type": "event"
    },
    {
      "inputs": [
        {
          "internalType": "address",
          "name": "_manager",
          "type": "address"
        }
      ],
      "name": "authorize",
      "outputs": [],
      "stateMutability": "nonpayable",
      "type": "function"
    },
    {
      "inputs": [
        {
          "internalType": "address",
          "name": "",
          "type": "address"
        }
      ],
      "name": "authorized",
      "outputs": [
        {
          "internalType": "address",
          "name": "",
          "type": "address"
        }
      ],
      "stateMutability": "view",
      "type": "function"
    },
    {
      "inputs": [],
      "name": "cancelOwnershipHandover",
      "outputs": [],
      "stateMutability": "payable",
      "type": "function"
    },
    {
      "inputs": [
        {
          "internalType": "address",
          "name": "pendingOwner",
          "type": "address"
        }
      ],
      "name": "completeOwnershipHandover",
      "outputs": [],
      "stateMutability": "payable",
      "type": "function"
    },
    {
      "inputs": [],
      "name": "owner",
      "outputs": [
        {
          "internalType": "address",
          "name": "result",
          "type": "address"
        }
      ],
      "stateMutability": "view",
      "type": "function"
    },
    {
      "inputs": [
        {
          "internalType": "address",
          "name": "pendingOwner",
          "type": "address"
        }
      ],
      "name": "ownershipHandoverExpiresAt",
      "outputs": [
        {
          "internalType": "uint256",
          "name": "result",
          "type": "uint256"
        }
      ],
      "stateMutability": "view",
      "type": "function"
    },
    {
      "inputs": [],
      "name": "renounceOwnership",
      "outputs": [],
      "stateMutability": "payable",
      "type": "function"
    },
    {
      "inputs": [],
      "name": "requestOwnershipHandover",
      "outputs": [],
      "stateMutability": "payable",
      "type": "function"
    },
    {
      "inputs": [],
      "name": "revoke",
      "outputs": [],
      "stateMutability": "nonpayable",
      "type": "function"
    },
    {
      "inputs": [
        {
          "internalType": "address",
          "name": "",
          "type": "address"
        },
        {
          "internalType": "address",
          "name": "",
          "type": "address"
        },
        {
          "internalType": "address",
          "name": "",
          "type": "address"
        }
      ],
      "name": "rules",
      "outputs": [
        {
          "internalType": "address",
          "name": "senderWallet",
          "type": "address"
        },
        {
          "internalType": "address",
          "name": "senderToken",
          "type": "address"
        },
        {
          "internalType": "uint256",
          "name": "senderAmount",
          "type": "uint256"
        },
        {
          "internalType": "uint256",
          "name": "senderFilledAmount",
          "type": "uint256"
        },
        {
          "internalType": "address",
          "name": "signerToken",
          "type": "address"
        },
        {
          "internalType": "uint256",
          "name": "signerAmount",
          "type": "uint256"
        },
        {
          "internalType": "uint256",
          "name": "expiry",
          "type": "uint256"
        }
      ],
      "stateMutability": "view",
      "type": "function"
    },
    {
      "inputs": [
        {
          "internalType": "address",
          "name": "_senderWallet",
          "type": "address"
        },
        {
          "internalType": "address",
          "name": "_senderToken",
          "type": "address"
        },
        {
          "internalType": "uint256",
          "name": "_senderAmount",
          "type": "uint256"
        },
        {
          "internalType": "address",
          "name": "_signerToken",
          "type": "address"
        },
        {
          "internalType": "uint256",
          "name": "_signerAmount",
          "type": "uint256"
        },
        {
          "internalType": "uint256",
          "name": "_expiry",
          "type": "uint256"
        }
      ],
      "name": "setRule",
      "outputs": [],
      "stateMutability": "nonpayable",
      "type": "function"
    },
    {
      "inputs": [
        {
          "internalType": "address",
          "name": "_swapERC20Contract",
          "type": "address"
        }
      ],
      "name": "setSwapERC20Contract",
      "outputs": [],
      "stateMutability": "nonpayable",
      "type": "function"
    },
    {
      "inputs": [
        {
          "internalType": "address",
          "name": "_senderWallet",
          "type": "address"
        },
        {
          "internalType": "uint256",
          "name": "_nonce",
          "type": "uint256"
        },
        {
          "internalType": "uint256",
          "name": "_expiry",
          "type": "uint256"
        },
        {
          "internalType": "address",
          "name": "_signerWallet",
          "type": "address"
        },
        {
          "internalType": "address",
          "name": "_signerToken",
          "type": "address"
        },
        {
          "internalType": "uint256",
          "name": "_signerAmount",
          "type": "uint256"
        },
        {
          "internalType": "address",
          "name": "_senderToken",
          "type": "address"
        },
        {
          "internalType": "uint256",
          "name": "_senderAmount",
          "type": "uint256"
        },
        {
          "internalType": "uint8",
          "name": "_v",
          "type": "uint8"
        },
        {
          "internalType": "bytes32",
          "name": "_r",
          "type": "bytes32"
        },
        {
          "internalType": "bytes32",
          "name": "_s",
          "type": "bytes32"
        }
      ],
      "name": "swap",
      "outputs": [],
      "stateMutability": "nonpayable",
      "type": "function"
    },
    {
      "inputs": [],
      "name": "swapERC20Contract",
      "outputs": [
        {
          "internalType": "contract ISwapERC20",
          "name": "",
          "type": "address"
        }
      ],
      "stateMutability": "view",
      "type": "function"
    },
    {
      "inputs": [
        {
          "internalType": "address",
          "name": "newOwner",
          "type": "address"
        }
      ],
      "name": "transferOwnership",
      "outputs": [],
      "stateMutability": "payable",
      "type": "function"
    },
    {
      "inputs": [
        {
          "internalType": "address",
          "name": "_senderWallet",
          "type": "address"
        },
        {
          "internalType": "address",
          "name": "_senderToken",
          "type": "address"
        },
        {
          "internalType": "address",
          "name": "_signerToken",
          "type": "address"
        }
      ],
      "name": "unsetRule",
      "outputs": [],
      "stateMutability": "nonpayable",
      "type": "function"
    }
  ],
  "bytecode": "0x608060405234801561001057600080fd5b5060405161124538038061124583398101604081905261002f91610099565b6100383361005d565b600080546001600160a01b0319166001600160a01b03929092169190911790556100c9565b6001600160a01b0316638b78c6d8198190558060007f8be0079c531659141344cd1fd0a4f28419497f9722a3daafe3b4186f6b6457e08180a350565b6000602082840312156100ab57600080fd5b81516001600160a01b03811681146100c257600080fd5b9392505050565b61116d806100d86000396000f3fe6080604052600436106100f35760003560e01c8063b6549f751161008a578063d30008c311610059578063d30008c314610349578063f04e283e14610369578063f2fde38b1461037c578063fee81cf41461038f57600080fd5b8063b6549f75146102a4578063b6a5d7de146102b9578063b9181611146102d9578063cda25cf01461031c57600080fd5b8063715018a6116100c6578063715018a61461014a5780638da5cb5b1461015257806398956069146101ac578063ab92efcc146101cc57600080fd5b806325692962146100f85780634f41492a1461010257806354710ef81461012257806354d1f13d14610142575b600080fd5b6101006103d0565b005b34801561010e57600080fd5b5061010061011d366004610f1a565b610420565b34801561012e57600080fd5b5061010061013d366004610f3c565b6104bc565b6101006106cf565b61010061070b565b34801561015e57600080fd5b507fffffffffffffffffffffffffffffffffffffffffffffffffffffffff74873927545b60405173ffffffffffffffffffffffffffffffffffffffff90911681526020015b60405180910390f35b3480156101b857600080fd5b506101006101c7366004610f9b565b61071f565b3480156101d857600080fd5b506102506101e7366004611047565b6001602081815260009485526040808620825293855283852090529083529120805491810154600282015460038301546004840154600585015460069095015473ffffffffffffffffffffffffffffffffffffffff968716969485169593949293919092169187565b6040805173ffffffffffffffffffffffffffffffffffffffff988916815296881660208801528601949094526060850192909252909316608083015260a082019290925260c081019190915260e0016101a3565b3480156102b057600080fd5b506101006109ef565b3480156102c557600080fd5b506101006102d4366004610f1a565b610a7e565b3480156102e557600080fd5b506101826102f4366004610f1a565b60026020526000908152604090205473ffffffffffffffffffffffffffffffffffffffff1681565b34801561032857600080fd5b506000546101829073ffffffffffffffffffffffffffffffffffffffff1681565b34801561035557600080fd5b50610100610364366004611047565b610b53565b610100610377366004610f1a565b610cfd565b61010061038a366004610f1a565b610d3d565b34801561039b57600080fd5b506103c26103aa366004610f1a565b63389a75e1600c908152600091909152602090205490565b6040519081526020016101a3565b60006202a30067ffffffffffffffff164201905063389a75e1600c5233600052806020600c2055337fdbf36a107da19e49527a7176a1babf963b4b0ff8cde35ee35d6cd8f1f9ac7e1d600080a250565b610428610d64565b73ffffffffffffffffffffffffffffffffffffffff8116610475576040517fa2f98bc000000000000000000000000000000000000000000000000000000000815260040160405180910390fd5b600080547fffffffffffffffffffffffff00000000000000000000000000000000000000001673ffffffffffffffffffffffffffffffffffffffff92909216919091179055565b73ffffffffffffffffffffffffffffffffffffffff868116600090815260026020526040902054161561054e5773ffffffffffffffffffffffffffffffffffffffff868116600090815260026020526040902054163314610549576040517fa7202ef600000000000000000000000000000000000000000000000000000000815260040160405180910390fd5b61059d565b3373ffffffffffffffffffffffffffffffffffffffff87161461059d576040517fa7202ef600000000000000000000000000000000000000000000000000000000815260040160405180910390fd5b6040805160e08101825273ffffffffffffffffffffffffffffffffffffffff88811680835288821660208085018281528587018b8152600060608089018281528d891660808b0181815260a08c018f815260c08d018f81528b87526001808b528f88208c89528b528f88208589528b52968f90209d518e54908e167fffffffffffffffffffffffff0000000000000000000000000000000000000000918216178f559851968e018054978e16978a1697909717909655955160028d0155915160038c0155905160048b01805491909a16951694909417909755905160058801555160069096019590955585518a8152908101889052948501869052929390917fd3f505973293e83a9a1d2ef697e7231a63d6ca30cb4d81d1e40fed7ba6b72352910160405180910390a4505050505050565b63389a75e1600c523360005260006020600c2055337ffa7b8eab7da67f412cc9575ed43464468f9bfbae89d1675917346ca6d8fe3c92600080a2565b610713610d64565b61071d6000610d9a565b565b73ffffffffffffffffffffffffffffffffffffffff808c16600090815260016020908152604080832089851684528252808320938b1683529290522060068101544210610798576040517fac59e29400000000000000000000000000000000000000000000000000000000815260040160405180910390fd5b806003015481600201546107ac91906110b9565b8511156107e5576040517fce518e5e00000000000000000000000000000000000000000000000000000000815260040160405180910390fd5b80600201548582600501546107fa91906110d2565b61080491906110e9565b871461083c576040517faa7751c800000000000000000000000000000000000000000000000000000000815260040160405180910390fd5b610848868d3088610e00565b60005461086d90879073ffffffffffffffffffffffffffffffffffffffff1687610e5d565b6000546040517f46e4480d000000000000000000000000000000000000000000000000000000008152600481018d9052602481018c905273ffffffffffffffffffffffffffffffffffffffff8b811660448301528a81166064830152608482018a905288811660a483015260c4820188905260ff871660e483015261010482018690526101248201859052909116906346e4480d9061014401600060405180830381600087803b15801561092057600080fd5b505af1158015610934573d6000803e3d6000fd5b50505050610943888d89610eac565b73ffffffffffffffffffffffffffffffffffffffff808d1660009081526001602090815260408083208a851684528252808320938c1683529290529081206003018054879290610994908490611124565b90915550506040518b9073ffffffffffffffffffffffffffffffffffffffff808c1691908f16907f9c2c8ebe29fb17e67adaea066465a681d82ec7552a9ffde12000f933b7f6ca0890600090a4505050505050505050505050565b3360008181526002602090815260409182902080547fffffffffffffffffffffffff00000000000000000000000000000000000000008116909155825173ffffffffffffffffffffffffffffffffffffffff90911680825291810193909352917fd7426110292f20fe59e73ccf52124e0f5440a756507c91c7b0a6c50e1eb1a23a91015b60405180910390a150565b73ffffffffffffffffffffffffffffffffffffffff8116610acb576040517fc3a29bad00000000000000000000000000000000000000000000000000000000815260040160405180910390fd5b3360008181526002602090815260409182902080547fffffffffffffffffffffffff00000000000000000000000000000000000000001673ffffffffffffffffffffffffffffffffffffffff86169081179091558251908152908101929092527f30468de898bda644e26bab66e5a2241a3aa6aaf527257f5ca54e0f65204ba14a9101610a73565b73ffffffffffffffffffffffffffffffffffffffff8381166000908152600260205260409020541615610be55773ffffffffffffffffffffffffffffffffffffffff838116600090815260026020526040902054163314610be0576040517fa7202ef600000000000000000000000000000000000000000000000000000000815260040160405180910390fd5b610c34565b3373ffffffffffffffffffffffffffffffffffffffff841614610c34576040517fa7202ef600000000000000000000000000000000000000000000000000000000815260040160405180910390fd5b73ffffffffffffffffffffffffffffffffffffffff80841660008181526001602081815260408084208887168086529083528185209688168086529690925280842080547fffffffffffffffffffffffff00000000000000000000000000000000000000009081168255938101805485169055600281018590556003810185905560048101805490941690935560058301849055600690920183905590519092917f8a5de2720528dbd2e4fe17889175d99555344219a0e2ef60298dc68801f57c9891a4505050565b610d05610d64565b63389a75e1600c52806000526020600c208054421115610d2d57636f5e88186000526004601cfd5b60009055610d3a81610d9a565b50565b610d45610d64565b8060601b610d5b57637448fbae6000526004601cfd5b610d3a81610d9a565b7fffffffffffffffffffffffffffffffffffffffffffffffffffffffff7487392754331461071d576382b429006000526004601cfd5b7fffffffffffffffffffffffffffffffffffffffffffffffffffffffff74873927805473ffffffffffffffffffffffffffffffffffffffff9092169182907f8be0079c531659141344cd1fd0a4f28419497f9722a3daafe3b4186f6b6457e0600080a355565b60405181606052826040528360601b602c526f23b872dd000000000000000000000000600c52602060006064601c6000895af13d156001600051141716610e4f57637939f4246000526004601cfd5b600060605260405250505050565b81601452806034526f095ea7b300000000000000000000000060005260206000604460106000875af13d156001600051141716610ea257633e3f8f736000526004601cfd5b6000603452505050565b81601452806034526fa9059cbb00000000000000000000000060005260206000604460106000875af13d156001600051141716610ea2576390b8ec186000526004601cfd5b803573ffffffffffffffffffffffffffffffffffffffff81168114610f1557600080fd5b919050565b600060208284031215610f2c57600080fd5b610f3582610ef1565b9392505050565b60008060008060008060c08789031215610f5557600080fd5b610f5e87610ef1565b9550610f6c60208801610ef1565b945060408701359350610f8160608801610ef1565b92506080870135915060a087013590509295509295509295565b60008060008060008060008060008060006101608c8e031215610fbd57600080fd5b610fc68c610ef1565b9a5060208c0135995060408c01359850610fe260608d01610ef1565b9750610ff060808d01610ef1565b965060a08c0135955061100560c08d01610ef1565b945060e08c013593506101008c013560ff8116811461102357600080fd5b809350506101208c013591506101408c013590509295989b509295989b9093969950565b60008060006060848603121561105c57600080fd5b61106584610ef1565b925061107360208501610ef1565b915061108160408501610ef1565b90509250925092565b7f4e487b7100000000000000000000000000000000000000000000000000000000600052601160045260246000fd5b818103818111156110cc576110cc61108a565b92915050565b80820281158282048414176110cc576110cc61108a565b60008261111f577f4e487b7100000000000000000000000000000000000000000000000000000000600052601260045260246000fd5b500490565b808201808211156110cc576110cc61108a56fea264697066735822122061a245dc21323f1134592598a63e846d249c3b953b968f82d79ed2c2c00f8fe764736f6c63430008170033",
  "linkReferences": {},
  "deployedLinkReferences": {}
}